:020000040000FA
:0400000012EF12F0F9
:10060000003F065B4F666D7D077F6F777C395E79B3
:1006100071554C445253584142597353454E4841C9
:100620002020202020202000436F66726520616218
:100630006572746F00537561206D6574613A202096
:1006400000446566696E61206D6574610053656E76
:1006500068613F2020200000300E1F6E300E206E9B
:10066000300E216E300E226E300E236E300E246E50
:1006700070EC0EF0D3EC10F053EC11F005EC12F02E
:1006800032EF06F0000E0F6E000E37EC11F01B0E6D
:100690000F6E060E106E81EC10F0000E0F6E010E44
:1006A00037EC11F01F50E7EC11F02050E7EC11F09F
:1006B0002150E7EC11F06BEC0CF02AC025F01DEC9A
:1006C00012F001502A6E2A502518D8B46AEF03F0B0
:1006D0006CEF03F032EF06F02AA071EF03F073EF36
:1006E00003F07DEF03F028502910D8A47AEF03F02F
:1006F0007CEF03F07DEF03F01F2A2AA082EF03F0C6
:1007000084EF03F08EEF03F028042910D8A48BEFB8
:1007100003F08DEF03F08EEF03F0202A2AA093EF71
:1007200003F095EF03F0A0EF03F0020E2818291054
:10073000D8A49DEF03F09FEF03F0A0EF03F0212A70
:100740002AACA5EF03F0A7EF03F032EF06F0284A3A
:10075000292A030E28182910D8A4B1EF03F0B3EF0B
:1007600003F0B9EF03F0000E186E010E176E32EFB2
:1007700006F032EF06F0000E0F6E000E37EC11F0AF
:10078000410E0F6E060E106E81EC10F0000E0F6E13
:10079000010E37EC11F019C00FF01AC010F05CEC2C
:1007A0000FF06BEC0CF02AC025F01DEC12F001509C
:1007B0002A6E2A502518D8B4E0EF03F0E2EF03F0D8
:1007C00032EF06F02AA0E7EF03F0E9EF03F0F7EFCE
:1007D00003F0030E28182910D8A4F1EF03F0F3EF6B
:1007E00003F0F7EF03F0050E1926000E1A222AACCB
:1007F000FCEF03F0FEEF03F032EF06F0284A292A5F
:10080000040E28182910D8A408EF04F00AEF04F009
:1008100032EF06F0000E0F6E000E37EC11F0350EC1
:100820000F6E060E106E81EC10F0000E186E020EA8
:10083000176E32EF06F06BEC0CF02AC025F01DECC1
:1008400012F001502A6E2A502518D8B42AEF04F06D
:100850002CEF04F063EF04F02AA231EF04F033EF41
:1008600004F037EF04F0640E2626000E27222AA497
:100870003CEF04F03EEF04F042EF04F0320E262687
:10088000000E27222AA647EF04F049EF04F04DEFAF
:1008900004F0190E2626000E27222AA852EF04F093
:1008A00054EF04F058EF04F00A0E2626000E27221B
:1008B0002AAA5DEF04F05FEF04F063EF04F0050E89
:1008C0002626000E272256EC10F0000E0F6E030EA7
:1008D000046EE80E036E26C001F027C002F00EEC95
:1008E0000EF001C009F002C00AF0000E0C6E0A0EF4
:1008F0000B6ECAEC0EF009502AEC10F0010E0F6ED0
:10090000000E046E640E036E26C001F027C002F0D4
:100910000EEC0EF001C009F002C00AF0000E0C6EE1
:100920000A0E0B6ECAEC0EF009502AEC10F0020E03
:100930000F6E000E046E0A0E036E26C001F027C073
:1009400002F00EEC0EF001C009F002C00AF0000E39
:100950000C6E0A0E0B6ECAEC0EF009502AEC10F069
:10096000030E0F6E26C009F027C00AF0000E0C6EB1
:100970000A0E0B6ECAEC0EF009502AEC10F000ECD7
:100980000BF0000E1B6E000E1C6E000E1D6E000E96
:100990001E6E1BC001F01CC002F01DC003F01EC083
:1009A00004F0000E056E000E066E480E076E420E35
:1009B000086E8CEC0DF0D8A0E0EF04F0E2EF04F04C
:1009C000E4EF04F017EF05F01BC001F01CC002F0CB
:1009D0001DC003F01EC004F0000E056E000E066E72
:1009E000800E076E3F0E086E52EC06F001C01BF041
:1009F00002C01CF003C01DF004C01EF01BC001F0BB
:100A00001CC002F01DC003F01EC004F0000E056EF5
:100A1000000E066E480E076E420E086E8CEC0DF04E
:100A2000D8A015EF05F017EF05F0E4EF04F019502A
:100A3000265C2750800A156E1A50800A1558D8A0D7
:100A400024EF05F026EF05F032EF06F0000E186EE9
:100A5000030E176E000E296E040E286E32EF06F09C
:100A6000000E0F6E000E37EC11F04D0E0F6E060EDD
:100A7000106E81EC10F0000E0F6E010E37EC11F0CD
:100A80002250E7EC11F02350E7EC11F02450E7EC92
:100A900011F0200EE7EC11F0200EE7EC11F06BECFA
:100AA0000CF02AC025F01DEC12F001502A6E2A50DD
:100AB0002518D8B45EEF05F060EF05F032EF06F0D0
:100AC0002AA065EF05F067EF05F072EF05F0040E60
:100AD00028182910D8A46FEF05F071EF05F072EF18
:100AE00005F0222A2AA077EF05F079EF05F084EFD0
:100AF00005F0050E28182910D8A481EF05F083EF22
:100B000005F084EF05F0232A2AA089EF05F08BEF8A
:100B100005F096EF05F0060E28182910D8A493EFDB
:100B200005F095EF05F096EF05F0242A2AAC9BEF2F
:100B300005F09DEF05F032EF06F0284A292A070E4E
:100B400028182910D8A4A7EF05F0A9EF05F0F7EFB2
:100B500005F01F502218D8A4B0EF05F0B2EF05F051
:100B6000F7EF05F020502318D8A4B9EF05F0BBEF3C
:100B700005F0F7EF05F021502418D8A4C2EF05F0D6
:100B8000C4EF05F0F7EF05F0000E0F6E000E37EC26
:100B900011F0280E0F6E060E106E81EC10F0640E30
:100BA00096EC0FF0050E026EDC0E016ECCEC0FF031
:100BB000000E96EC0FF0000E186E000E176E000E71
:100BC000296E000E286E300E1F6E300E206E300E15
:100BD000216E300E226E300E236E300E246E000E0B
:100BE000276E000E266E000E1A6E000E196E070E8E
:100BF00028182910D8A4FFEF05F001EF06F032EF16
:100C000006F01F502218D8A408EF06F00AEF06F0ED
:100C10001CEF06F020502318D8A411EF06F013EFB4
:100C200006F01CEF06F021502418D8B41AEF06F095
:100C30001CEF06F032EF06F0300E226E300E236EFF
:100C4000300E246E000E296E040E286E640E96EC93
:100C50000FF0000E026EFA0E016ECCEC0FF0000EDB
:100C600096EC0FF017C015F018C016F01650000AD9
:100C7000D8B43DEF06F032EF06F01550000AD8B4B4
:100C800042EF03F0010AD8B4BBEF03F0030AD8B473
:100C90001BEF04F0010AD8B430EF05F032EF06F094
:100CA00000EF00F00450800B0D6E045004240F6E12
:100CB00003AE5DEF06F05FEF06F060EF06F00F8029
:100CC0000F50D8B466EF06F068EF06F07DEF06F03F
:100CD0000F28D8A46EEF06F070EF06F078EF06F05C
:100CE000000E016E000E026E000E036E000E046E0A
:100CF000038E000E046E85EF06F0000E016E000EEE
:100D0000026E000E036E000E046E0850800B0E6E15
:100D10000D500E18D8B48FEF06F091EF06F092EF59
:100D200006F00D8C085008240E6E07AE9AEF06F000
:100D30009CEF06F09DEF06F00E800E50D8B4A3EFA6
:100D400006F0A5EF06F0BAEF06F00E28D8A4ABEF38
:100D500006F0ADEF06F0B5EF06F0000E056E000EE2
:100D6000066E000E076E000E086E078E000E086EEF
:100D7000C2EF06F0000E056E000E066E000E076E46
:100D8000000E086E0F500E5CD8B0C9EF06F0CBEF26
:100D900006F0F2EF06F00DACD0EF06F0D2EF06F061
:100DA000D4EF06F0800E0D1A0FC010F00EC00FF039
:100DB00010C00EF001C010F005C001F010C005F029
:100DC00002C010F006C002F010C006F003C010F020
:100DD00007C003F010C007F004C010F008C004F012
:100DE00010C008F0000E106E0F500EC009F00A6A15
:100DF000095E000E0A5A0ABE07EF07F00A5009E121
:100E00001A0E095CD8A007EF07F009EF07F040EFD2
:100E100007F00150021003100410D8A412EF07F0DD
:100E200015EF07F0010E16EF07F0000E106E000E22
:100E3000016E000E026E000E036E000E046E0EC0F8
:100E40000FF049EF07F010A028EF07F02AEF07F0A6
:100E500030EF07F0D89010300109106E32EF07F034
:100E6000D890103201A037EF07F039EF07F03AEFD2
:100E700007F0108E043404320332023201320F2A9A
:100E80000E500F5CD8A047EF07F049EF07F023EFB3
:100E900007F00DBC4EEF07F050EF07F090EF07F0B2
:100EA0000F50D8A456EF07F058EF07F062EF07F0A5
:100EB000000E016E000E026E000E036E000E046E38
:100EC000B1EF08F005500126065002220750032218
:100ED0000850042204A06FEF07F071EF07F01DEF38
:100EE00008F010A076EF07F078EF07F07EEF07F03C
:100EF000D89010300109106E80EF07F0D8901032B2
:100F000001A085EF07F087EF07F088EF07F0108E5C
:100F1000043404320332023201320F2A1DEF08F08A
:100F20000550015C06500258075003580450800ACF
:100F3000096E0850800A0958D8B0A1EF07F0A3EF56
:100F400007F0CEEF07F00150055C096E025006581D
:100F50000A6E035007580B6E045008580C6EFF0EB3
:100F60000924016EFF0E0A20026EFF0E0B20036E95
:100F7000FF0E0C20046E800E0D1A106C1050D8A4B9
:100F8000C4EF07F0C6EF07F0D6EF07F0010E012619
:100F9000000E022203220422D6EF07F00550015E64
:100FA0000650025A0750035A0850045A01500210C2
:100FB00003100410D8A4DFEF07F0E1EF07F016EFFD
:100FC00008F01050D8A4E7EF07F0E9EF07F016EFAC
:100FD00008F0000E016E000E026E000E036E000E91
:100FE000046EB1EF08F0D8900136023603360436AD
:100FF00010AEFDEF07F0FFEF07F000EF08F0018003
:1010000010A005EF08F007EF08F00BEF08F0D8800C
:1010100010360DEF08F0D89010360F50D8B413EFFB
:1010200008F015EF08F016EF08F00F0603AE1BEFFF
:1010300008F01DEF08F0F3EF07F0000E0E6E10AE93
:1010400024EF08F026EF08F03EEF08F010C009F09A
:101050007F0E0916D8B42FEF08F031EF08F035EF06
:1010600008F0010E0E6E3EEF08F001A03AEF08F016
:101070003CEF08F03EEF08F031EF08F00E50D8B426
:1010800044EF08F046EF08F071EF08F0010E01267A
:10109000000E02220322042204A051EF08F053EFB5
:1010A00008F071EF08F001C009F002C00AF003C0B7
:1010B0000BF004C00CF00C340C320B320A32093243
:1010C00009C001F00AC002F00BC003F00CC004F02C
:1010D0000F28D8B46EEF08F070EF08F071EF08F049
:1010E0000F2A0F28D8B477EF08F079EF08F081EFD6
:1010F00008F00F50D8A47FEF08F081EF08F093EFCD
:1011000008F0000E016E000E026E000E036E000E5F
:10111000046E0F50D8A48FEF08F091EF08F093EF12
:1011200008F0000E0D6E0FA098EF08F09AEF08F08F
:101130009DEF08F0038E9EEF08F0039ED8900F30CD
:10114000046E0DAEA6EF08F0A8EF08F0A9EF08F0C6
:10115000048E01C001F002C002F003C003F004C01D
:1011600004F0120002BEC0EF08F0025007E1080EC2
:10117000015CD8B0BEEF08F0C0EF08F0EAEF08F06D
:1011800003500410D8B4C7EF08F0C9EF08F0D9EF46
:1011900008F001C005F0010E066E052AD2EF08F036
:1011A000D8900636052ED0EF08F006508012D8EF02
:1011B00009F001C005F0010E066E052AE2EF08F005
:1011C000D8900636052EE0EF08F00650FF0A80168C
:1011D000D8EF09F002BEF8EF08F0025007E1100E58
:1011E000015CD8B0F6EF08F0F8EF08F026EF09F050
:1011F000F80E0126FF0E022203500410D8B403EFAC
:1012000009F005EF09F015EF09F001C005F0010E36
:10121000066E052A0EEF09F0D8900636052E0CEF63
:1012200009F006508112D8EF09F001C005F0010E57
:10123000066E052A1EEF09F0D8900636052E1CEF23
:1012400009F00650FF0A8116D8EF09F002BE34EF0C
:1012500009F0025007E1180E015CD8B032EF09F036
:1012600034EF09F062EF09F0F00E0126FF0E0222C2
:1012700003500410D8B43FEF09F041EF09F051EFEB
:1012800009F001C005F0010E066E052A4AEF09F0CB
:10129000D8900636052E48EF09F006508212D8EF96
:1012A00009F001C005F0010E066E052A5AEF09F09B
:1012B000D8900636052E58EF09F00650FF0A821620
:1012C000D8EF09F002BE70EF09F0025007E1200EDE
:1012D000015CD8B06EEF09F070EF09F09EEF09F0F5
:1012E000E80E0126FF0E022203500410D8B47BEF53
:1012F00009F07DEF09F08DEF09F001C005F0010E56
:10130000066E052A86EF09F0D8900636052E84EF82
:1013100009F006508312D8EF09F001C005F0010E64
:10132000066E052A96EF09F0D8900636052E94EF42
:1013300009F00650FF0A8316D8EF09F002BEACEFA1
:1013400009F0025007E1280E015CD8B0AAEF09F0BD
:10135000ACEF09F0D8EF09F0E00E0126FF0E0222F3
:1013600003500410D8B4B7EF09F0B9EF09F0C9EF92
:1013700009F001C005F0010E066E052AC2EF09F062
:10138000D8900636052EC0EF09F006508412D8EF2B
:1013900009F001C005F0010E066E052AD2EF09F032
:1013A000D8900636052ED0EF09F00650FF0A8416B5
:1013B000120002BEE7EF09F0025007E1080E015CDF
:1013C000D8B0E5EF09F0E7EF09F011EF0AF00350AC
:1013D0000410D8B4EEEF09F0F0EF09F000EF0AF0D6
:1013E00001C005F0010E066E052AF9EF09F0D8904C
:1013F0000636052EF7EF09F006509212FFEF0AF0BD
:1014000001C005F0010E066E052A09EF0AF0D8901A
:101410000636052E07EF0AF00650FF0A9216FFEF78
:101420000AF002BE1FEF0AF0025007E1100E015C45
:10143000D8B01DEF0AF01FEF0AF04DEF0AF003508D
:101440000410D8B426EF0AF028EF0AF03AEF0AF0B9
:1014500001C005F0F80E0526010E066E052A33EFD1
:101460000AF0D8900636052E31EF0AF00650931296
:10147000FFEF0AF001C005F0F80E0526010E066E1A
:10148000052A45EF0AF0D8900636052E43EF0AF0FC
:101490000650FF0A9316FFEF0AF002BE5BEF0AF058
:1014A000025007E1180E015CD8B059EF0AF05BEF6B
:1014B0000AF089EF0AF003500410D8B462EF0AF082
:1014C00064EF0AF076EF0AF001C005F0F00E052691
:1014D000010E066E052A6FEF0AF0D8900636052E2B
:1014E0006DEF0AF006509412FFEF0AF001C005F00C
:1014F000F00E0526010E066E052A81EF0AF0D8903F
:101500000636052E7FEF0AF00650FF0A9416FFEF0D
:101510000AF002BE97EF0AF0025007E1200E015CCC
:10152000D8B095EF0AF097EF0AF0C5EF0AF0035034
:101530000410D8B49EEF0AF0A0EF0AF0B2EF0AF060
:1015400001C005F0E80E0526010E066E052AABEF78
:101550000AF0D8900636052EA9EF0AF0065095122B
:10156000FFEF0AF001C005F0E80E0526010E066E39
:10157000052ABDEF0AF0D8900636052EBBEF0AF01B
:101580000650FF0A9516FFEF0AF002BED3EF0AF0ED
:10159000025007E1280E015CD8B0D1EF0AF0D3EF7A
:1015A0000AF0FFEF0AF003500410D8B4DAEF0AF0A3
:1015B000DCEF0AF0EEEF0AF001C005F0E00E0526C0
:1015C000010E066E052AE7EF0AF0D8900636052EC2
:1015D000E5EF0AF006509612FFEF0AF001C005F0A1
:1015E000E00E0526010E066E052AF9EF0AF0D890E6
:1015F0000636052EF7EF0AF00650FF0A961612007F
:10160000000E026E180E016E000E046E000E036EC8
:10161000B2EC08F0000E026E190E016E000E046EA0
:10162000000E036EB2EC08F0000E026E1A0E016E90
:10163000000E046E000E036EB2EC08F0000E026E97
:101640001B0E016E000E046E000E036EB2EC08F06D
:10165000000E086E000E076EACEC10F098EF0BF069
:10166000010E3424F66EF76A060EF7220800F550D4
:10167000076E086AACEC10F0000E026E180E016ED8
:10168000000E046E010E036EB2EC08F0010E356E12
:10169000B5EF0BF0010E3324F66EF76A060EF72253
:1016A0000800F550076E086AACEC10F0000E026EF0
:1016B000190E016E000E046E010E036EB2EC08F0FE
:1016C000020E356EB5EF0BF0010E3224F66EF76A9E
:1016D000060EF7220800F550076E086AACEC10F011
:1016E000000E026E1A0E016E000E046E010E036EE5
:1016F000B2EC08F0030E356EB5EF0BF0010E31249D
:10170000F66EF76A060EF7220800F550076E086AB3
:10171000ACEC10F0000E026E1B0E016E000E046E9B
:10172000010E036EB2EC08F0000E356EB5EF0BF053
:1017300035500A6E0B6A0B50000AD8B4A2EF0BF0BA
:1017400094EF0BF00A50000AD8B430EF0BF0010A06
:10175000D8B44AEF0BF0030AD8B464EF0BF0010AD7
:10176000D8B47EEF0BF094EF0BF0120002BEC4EF82
:101770000BF0025007E1080E015CD8B0C2EF0BF08D
:10178000C4EF0BF0D8EF0BF001C003F0010E046EB4
:10179000032ACDEF0BF0D8900436032ECBEF0BF0DD
:1017A00004508014056E0550016E026A6AEF0CF059
:1017B00002BEE6EF0BF0025007E1100E015CD8B05C
:1017C000E4EF0BF0E6EF0BF0FCEF0BF001C003F0E1
:1017D000F80E0326010E046E032AF1EF0BF0D890E9
:1017E0000436032EEFEF0BF004508114056E055004
:1017F000016E026A6AEF0CF002BE0AEF0CF00250B2
:1018000007E1180E015CD8B008EF0CF00AEF0CF0FD
:1018100020EF0CF001C003F0F00E0326010E046E61
:10182000032A15EF0CF0D8900436032E13EF0CF0BA
:1018300004508214056E0550016E026A6AEF0CF0C6
:1018400002BE2EEF0CF0025007E1200E015CD8B072
:101850002CEF0CF02EEF0CF044EF0CF001C003F075
:10186000E80E0326010E046E032A39EF0CF0D8901F
:101870000436032E37EF0CF004508314056E055028
:10188000016E026A6AEF0CF002BE52EF0CF00250D9
:1018900007E1280E015CD8B050EF0CF052EF0CF0CD
:1018A00068EF0CF001C003F0E00E0326010E046E99
:1018B000032A5DEF0CF0D8900436032E5BEF0CF09A
:1018C00004508414056E0550016E026A6AEF0CF034
:1018D000016802681200000E2E6E000E2D6E000EC2
:1018E0000E6E000E0D6E0EBE7FEF0CF00E5009E175
:1018F000050E0D5CD8A07FEF0CF081EF0CF083EFAC
:101900000CF0E4EF0CF00DC00AF0030E0A26010EF5
:101910000B6E000E0C6E0A2A91EF0CF0D8900B366D
:101920000C360A2E8EEF0CF00BC007F00CC008F03E
:10193000ACEC10F0000E026E0A0E016EB6EC0BF06D
:1019400001500210D8B4A7EF0CF0A9EF0CF0BCEFD7
:101950000CF00DC00AF0010E0B6E000E0C6E0A2A80
:10196000B5EF0CF0D8900B360C360A2EB2EF0CF017
:101970000B502D120C502E12000E026E090E016E2D
:10198000B6EC0BF001500210D8B4C9EF0CF0CBEF5D
:101990000CF0E0EF0CF00DC00AF0050E0A26010E67
:1019A0000B6E000E0C6E0A2AD9EF0CF0D8900B3695
:1019B0000C360A2ED6EF0CF00B502D120C502E12B6
:1019C0000D4A0E2A73EF0CF02D502B1807E12E5004
:1019D0002C18D8A4EEEF0CF0F0EF0CF0F3EF0CF0B5
:1019E0003606F9EF0CF0010E366E2DC02BF02EC02E
:1019F0002CF03650D8A4FFEF0CF001EF0DF005EFFE
:101A00000DF02BC02FF02CC030F01200000E0A6E2B
:101A100008BE0FEF0DF00DEF0DF019EF0DF0081EE1
:101A2000071E061E056C000E062207220822010E64
:101A30000A6E04BE20EF0DF01EEF0DF02AEF0DF040
:101A4000041E031E021E016C000E02220322042249
:101A5000010E0A1A000E0B6E000E0C6E000E0D6EBB
:101A6000000E0E6E0550061007100810D8B43BEF9C
:101A70000DF03DEF0DF073EF0DF0010E096E47EF25
:101A80000DF0D8900536063607360836092A08AE16
:101A90004CEF0DF04EEF0DF041EF0DF0D8900B36FE
:101AA0000C360D360E360550015C065002580750B4
:101AB000035808500458D8A060EF0DF062EF0DF005
:101AC0006BEF0DF00550015E0650025A0750035AA5
:101AD0000850045A0B80D89008320732063205327B
:101AE000092E4EEF0DF00A50D8B479EF0DF07BEFD0
:101AF0000DF083EF0DF00E1E0D1E0C1E0B6C000E74
:101B00000C220D220E220BC001F00CC002F00DC001
:101B100003F00EC004F01200000E0114096E000E56
:101B200002140A6E800E03140B6E7F0E04140C6EEA
:101B300009500A100B100C10D8A4A1EF0DF0A3EF60
:101B40000DF0ABEF0DF0000E016E000E026E000EF8
:101B5000036E000E046E000E0514096E000E0614CE
:101B60000A6E800E07140B6E7F0E08140C6E09505F
:101B70000A100B100C10D8A4C0EF0DF0C2EF0DF03E
:101B8000CAEF0DF0000E056E000E066E000E076E19
:101B9000000E086E04AECFEF0DF0D1EF0DF0DAEFCE
:101BA0000DF0016C021ED8B0022A031ED8B0032A21
:101BB000800E045608AEDFEF0DF0E1EF0DF0EAEF16
:101BC0000DF0056C061ED8B0062A071ED8B0072AED
:101BD000800E0856000E011A000E021A000E031A9B
:101BE000800E041A000E051A000E061A000E071ABF
:101BF000800E081A0550015C065002580750035821
:101C000008500458D8B007EF0EF009EF0EF00CEFB3
:101C10000EF0D8900DEF0EF0D8801200000E066E78
:101C200004BE17EF0EF015EF0EF01DEF0EF0036C73
:101C3000041ED8B0042A010E066E02BE24EF0EF078
:101C400022EF0EF02AEF0EF0016C021ED8B0022A2D
:101C5000010E061A000E086E000E076E03500410E7
:101C6000D8B435EF0EF037EF0EF05FEF0EF0010E47
:101C7000056E3FEF0EF0D89003360436052A04AE09
:101C800044EF0EF046EF0EF03BEF0EF0D890073623
:101C900008360350015C04500258D8A052EF0EF0F1
:101CA00054EF0EF059EF0EF00350015E0450025A4B
:101CB0000780D89004320332052E46EF0EF006500E
:101CC000D8B465EF0EF067EF0EF06BEF0EF0076C17
:101CD000081ED8B0082A07C001F008C002F01200A0
:101CE000000E026E1C0E016E000E046E000E036EDE
:101CF000D9EC09F0000E026E1D0E016E000E046E8E
:101D0000000E036ED9EC09F018EC11F0000E026E13
:101D10000F0E016E6CEC11F0000E0B6E000E0A6ED1
:101D2000030ED4EC11F0000E026E050E016E6CEC89
:101D300011F0000E0B6E000E0A6E030ED4EC11F0C3
:101D4000000E026EA00E016E22EC12F0000E0B6E61
:101D5000000E0A6E030ED4EC11F0000E026EA00EFF
:101D6000016E22EC12F0000E0B6E000E0A6E020ED7
:101D7000D4EC11F0000E026E0A0E016E6CEC11F044
:101D8000280EF6EC11F00C0EF6EC11F0010EF6EC4C
:101D900011F01200000E0E6E0ABED3EF0EF0D1EF5E
:101DA0000EF0D9EF0EF0096C0A1ED8B00A2A010E07
:101DB0000E6E0CBEE0EF0EF0DEEF0EF0E4EF0EF074
:101DC0000B6C0C1ED8B00C2A0B500C10D8B4EBEFD7
:101DD0000EF0EDEF0EF011EF0FF0010E0D6EF5EFBE
:101DE0000EF0D8900B360C360D2A0CAEFAEF0EF032
:101DF000FCEF0EF0F1EF0EF00B50095C0C500A589E
:101E0000D8A005EF0FF007EF0FF00BEF0FF00B501E
:101E1000095E0C500A5AD8900C320B320D2EFCEF92
:101E20000EF00E50D8B417EF0FF019EF0FF01DEFB2
:101E30000FF0096C0A1ED8B00A2A09C009F00AC0BE
:101E40000AF01200000E066E000E056E035004101C
:101E5000D8B42DEF0FF02FEF0FF057EF0FF0010E6A
:101E6000076E37EF0FF0D89003360436072A04AE1A
:101E70003CEF0FF03EEF0FF033EF0FF0D890053648
:101E800006360350015C04500258D8A04AEF0FF008
:101E90004CEF0FF051EF0FF00350015E0450025A67
:101EA0000580D89004320332072E3EEF0FF005C0B4
:101EB00001F006C002F01200270E126E100E116E15
:101EC00088EF0FF011C003F012C004F00FC001F052
:101ED00010C002F00EEC0EF001C009F002C00AF0D2
:101EE000000E0C6E0A0E0B6ECAEC0EF00950300F8D
:101EF000E7EC11F011C001F012C002F0000E046E08
:101F00000A0E036E0EEC0EF001C011F002C012F0CA
:101F100012BE95EF0FF0125006E11104D8B093EF06
:101F20000FF095EF0FF062EF0FF012000A6E010E46
:101F3000CB24016E026A000E02220AC003F0046A7A
:101F4000AEEC11F001C00BF002C00CF00BC001F0C0
:101F50000CC002F0000E046E190E036E22EC0FF09E
:101F600001C00BF002C00CF0FF0E0B16030E0C1696
:101F70000BC008F00CC009F0D89009320832D89094
:101F8000093208320850BB6E0BC008F0030E081669
:101F90000838F00BBA121200EFEF0FF0000E036ECC
:101FA000280E0364D6EF0FF0D8EF0FF0DAEF0FF042
:101FB000ECEF0FF0000E046E020E0464E2EF0FF07F
:101FC000E4EF0FF0E6EF0FF0E9EF0FF0042ADCEF9B
:101FD0000FF0032AD0EF0FF00106D8A0020602BED0
:101FE000FCEF0FF0025006E10104D8B0FAEF0FF059
:101FF000FCEF0FF0CEEF0FF012000D6E0DC00CF0E5
:102000000C3A0F0E0C160C50076E086AACEC10F070
:10201000000E026E1D0E016E0AC003F00BC004F02C
:10202000B2EC08F0F7EC10F00DC00CF00F0E0C162F
:102030000C50076E086AACEC10F0000E026E1D0E1C
:10204000016E0AC003F00BC004F0B2EC08F0F7EC2C
:1020500010F01200106E0F50D8A431EF10F033EFD3
:1020600010F035EF10F010C034F00F04D8A43BEF9F
:1020700010F03DEF10F03FEF10F010C033F0020E03
:102080000F18D8A446EF10F048EF10F04AEF10F008
:1020900010C032F0030E0F18D8A451EF10F053EF18
:1020A00010F055EF10F010C031F01200000E026E6B
:1020B000180E016E000E046E000E036ED9EC09F0CE
:1020C000000E026E190E016E000E046E000E036EFD
:1020D000D9EC09F0000E026E1A0E016E000E046EAD
:1020E000000E036ED9EC09F0000E026E1B0E016E9D
:1020F000000E046E000E036ED9EC09F018EC11F01E
:102100001200000E146E000E136E97EF10F01350B5
:102110000F24116E14501020126E11C0F6FF12C061
:10212000F7FF0800F550E7EC11F0134A142A13509A
:102130000F24116E14501020126E11C0F6FF12C041
:10214000F7FF0800F5500009D8A4A9EF10F0ABEF95
:1021500010F087EF10F01200000E026E080E016EF4
:10216000000E046E000E036EB2EC08F0000E096E55
:10217000000E026E1E0E016E800E0714036E046ABE
:10218000B2EC08F099EC11F0D89007360836092A1D
:10219000070E0964CEEF10F0D0EF10F0B8EF10F09A
:1021A00084EC11F01200000E026E000E016E000EA3
:1021B000046E010E036ED9EC09F0000E026E010EE2
:1021C000016E000E046E010E036ED9EC09F0000ED4
:1021D000026E020E016E000E046E010E036ED9EC4B
:1021E00009F0C2800C0EC16EAA0EC06E1200000E65
:1021F000026E1C0E016E000E046E010E036EB2EC38
:1022000008F0000E026E050E016E22EC12F0000EB8
:10221000026E1C0E016E000E046E000E036EB2EC18
:1022200008F0000E026E050E016E22EC12F0120094
:10223000000E026E1F0E016E000E046E000E036E85
:10224000D9EC09F0000E026E080E016E000E046E4D
:10225000000E036ED9EC09F0000E026E1E0E016E28
:10226000000E046E000E036ED9EC09F01200106E21
:102270001050D8A43EEF11F040EF11F045EF11F0EF
:102280000F500F0B800FF6EC11F01004D8A44BEF99
:1022900011F04DEF11F052EF11F00F500F0BC00F76
:1022A000F6EC11F0120018EC11F0000E026E0A0E9E
:1022B000016E000E046E010E036ED9EC09F0000EE3
:1022C000026E090E016E000E046E010E036ED9EC53
:1022D00009F00C0EC16E1200000E056E000E046EA9
:1022E00074EF11F0044A052A0150045C0550800A7D
:1022F000036E0250800A0358D8A081EF11F083EFDB
:1023000011F072EF11F01200000E026E1F0E016E3E
:10231000000E046E010E036EB2EC08F0000E026EA9
:102320001F0E016E000E046E000E036EB2EC08F07C
:102330001200000E026E080E016E000E046E010EF9
:10234000036EB2EC08F0000E026E080E016E000E75
:10235000046E000E036EB2EC08F01200015003028E
:10236000F3CF05F0F4CF06F001500402F350062637
:1023700002500302F350062605C001F006C002F029
:102380001200480E016EE80E026E010E036E000E82
:10239000046E0FC005F010C006F0076A086A06EC6C
:1023A0000DF00104CB6E12000C6E0CC007F0086A31
:1023B000ACEC10F0000E026E1D0E016E0AC003F0B0
:1023C0000BC004F0B2EC08F0F7EC10F012000E6E47
:1023D000000E0B6E010E0A6E0E50FDEC0FF0000E9B
:1023E000026E500E016E22EC12F012000E6E000E04
:1023F0000B6E000E0A6E0E50FDEC0FF0000E026E1A
:10240000020E016E6CEC11F012009492030ECA12CF
:10241000CA840C0EBA6E000E106E640E0F6EC1EC04
:1024200011F0120000EE2BF00C0EEE6AE806FDE152
:10243000000EF86E00012CEF03F02FC001F030C049
:0624400002F01200120080
:020000040020DA
:08000000FFFFFFFFFFFFFFFF00
:020000040030CA
:0E000000FF027100FF8380FF0FC00FE00F4072
:00000001FF
